{
  "_format": "hh-sol-artifact-1",
  "contractName": "AXFLOToken",
  "sourceName": "src/contracts/polygon/contracts/AXFLOToken.sol",
  "abi": [
    {
      "inputs": [
        {
          "internalType": "address",
          "name": "treasury",
          "type": "address"
        }
      ],
      "stateMutability": "nonpayable",
      "type": "constructor"
    },
    {
      "anonymous": false,
      "inputs": [
        {
          "indexed": true,
          "internalType": "address",
          "name": "owner",
          "type": "address"
        },
        {
          "indexed": true,
          "internalType": "address",
          "name": "spender",
          "type": "address"
        },
        {
          "indexed": false,
          "internalType": "uint256",
          "name": "value",
          "type": "uint256"
        }
      ],
      "name": "Approval",
      "type": "event"
    },
    {
      "anonymous": false,
      "inputs": [
        {
          "indexed": true,
          "internalType": "address",
          "name": "previousOwner",
          "type": "address"
        },
        {
          "indexed": true,
          "internalType": "address",
          "name": "newOwner",
          "type": "address"
        }
      ],
      "name": "OwnershipTransferred",
      "type": "event"
    },
    {
      "anonymous": false,
      "inputs": [
        {
          "indexed": true,
          "internalType": "address",
          "name": "from",
          "type": "address"
        },
        {
          "indexed": true,
          "internalType": "address",
          "name": "to",
          "type": "address"
        },
        {
          "indexed": false,
          "internalType": "uint256",
          "name": "value",
          "type": "uint256"
        }
      ],
      "name": "Transfer",
      "type": "event"
    },
    {
      "inputs": [],
      "name": "INITIAL_SUPPLY",
      "outputs": [
        {
          "internalType": "uint256",
          "name": "",
          "type": "uint256"
        }
      ],
      "stateMutability": "view",
      "type": "function"
    },
    {
      "inputs": [
        {
          "internalType": "address",
          "name": "owner",
          "type": "address"
        },
        {
          "internalType": "address",
          "name": "spender",
          "type": "address"
        }
      ],
      "name": "allowance",
      "outputs": [
        {
          "internalType": "uint256",
          "name": "",
          "type": "uint256"
        }
      ],
      "stateMutability": "view",
      "type": "function"
    },
    {
      "inputs": [
        {
          "internalType": "address",
          "name": "spender",
          "type": "address"
        },
        {
          "internalType": "uint256",
          "name": "amount",
          "type": "uint256"
        }
      ],
      "name": "approve",
      "outputs": [
        {
          "internalType": "bool",
          "name": "",
          "type": "bool"
        }
      ],
      "stateMutability": "nonpayable",
      "type": "function"
    },
    {
      "inputs": [
        {
          "internalType": "address",
          "name": "account",
          "type": "address"
        }
      ],
      "name": "balanceOf",
      "outputs": [
        {
          "internalType": "uint256",
          "name": "",
          "type": "uint256"
        }
      ],
      "stateMutability": "view",
      "type": "function"
    },
    {
      "inputs": [],
      "name": "decimals",
      "outputs": [
        {
          "internalType": "uint8",
          "name": "",
          "type": "uint8"
        }
      ],
      "stateMutability": "view",
      "type": "function"
    },
    {
      "inputs": [
        {
          "internalType": "address",
          "name": "spender",
          "type": "address"
        },
        {
          "internalType": "uint256",
          "name": "subtractedValue",
          "type": "uint256"
        }
      ],
      "name": "decreaseAllowance",
      "outputs": [
        {
          "internalType": "bool",
          "name": "",
          "type": "bool"
        }
      ],
      "stateMutability": "nonpayable",
      "type": "function"
    },
    {
      "inputs": [
        {
          "internalType": "address",
          "name": "spender",
          "type": "address"
        },
        {
          "internalType": "uint256",
          "name": "addedValue",
          "type": "uint256"
        }
      ],
      "name": "increaseAllowance",
      "outputs": [
        {
          "internalType": "bool",
          "name": "",
          "type": "bool"
        }
      ],
      "stateMutability": "nonpayable",
      "type": "function"
    },
    {
      "inputs": [],
      "name": "name",
      "outputs": [
        {
          "internalType": "string",
          "name": "",
          "type": "string"
        }
      ],
      "stateMutability": "view",
      "type": "function"
    },
    {
      "inputs": [],
      "name": "owner",
      "outputs": [
        {
          "internalType": "address",
          "name": "",
          "type": "address"
        }
      ],
      "stateMutability": "view",
      "type": "function"
    },
    {
      "inputs": [],
      "name": "renounceOwnership",
      "outputs": [],
      "stateMutability": "nonpayable",
      "type": "function"
    },
    {
      "inputs": [],
      "name": "symbol",
      "outputs": [
        {
          "internalType": "string",
          "name": "",
          "type": "string"
        }
      ],
      "stateMutability": "view",
      "type": "function"
    },
    {
      "inputs": [],
      "name": "totalSupply",
      "outputs": [
        {
          "internalType": "uint256",
          "name": "",
          "type": "uint256"
        }
      ],
      "stateMutability": "view",
      "type": "function"
    },
    {
      "inputs": [
        {
          "internalType": "address",
          "name": "to",
          "type": "address"
        },
        {
          "internalType": "uint256",
          "name": "amount",
          "type": "uint256"
        }
      ],
      "name": "transfer",
      "outputs": [
        {
          "internalType": "bool",
          "name": "",
          "type": "bool"
        }
      ],
      "stateMutability": "nonpayable",
      "type": "function"
    },
    {
      "inputs": [
        {
          "internalType": "address",
          "name": "from",
          "type": "address"
        },
        {
          "internalType": "address",
          "name": "to",
          "type": "address"
        },
        {
          "internalType": "uint256",
          "name": "amount",
          "type": "uint256"
        }
      ],
      "name": "transferFrom",
      "outputs": [
        {
          "internalType": "bool",
          "name": "",
          "type": "bool"
        }
      ],
      "stateMutability": "nonpayable",
      "type": "function"
    },
    {
      "inputs": [
        {
          "internalType": "address",
          "name": "newOwner",
          "type": "address"
        }
      ],
      "name": "transferOwnership",
      "outputs": [],
      "stateMutability": "nonpayable",
      "type": "function"
    }
  ],
  "bytecode": "0x60806040523480156200001157600080fd5b5060405162000e5438038062000e54833981016040819052620000349162000259565b6040518060400160405280600e81526020016d2a3930bc233637bb902a37b5b2b760911b815250604051806040016040528060058152602001644158464c4f60d81b81525081600390816200008a91906200032f565b5060046200009982826200032f565b505050620000b6620000b06200013b60201b60201c565b6200013f565b6001600160a01b038116620001125760405162461bcd60e51b815260206004820152601860248201527f496e76616c69642074726561737572792061646472657373000000000000000060448201526064015b60405180910390fd5b6200011d816200013f565b62000134816a0c685fa11e01ec6f00000062000191565b5062000423565b3390565b600580546001600160a01b038381166001600160a01b0319831681179093556040519116919082907f8be0079c531659141344cd1fd0a4f28419497f9722a3daafe3b4186f6b6457e090600090a35050565b6001600160a01b038216620001e95760405162461bcd60e51b815260206004820152601f60248201527f45524332303a206d696e7420746f20746865207a65726f206164647265737300604482015260640162000109565b8060026000828254620001fd9190620003fb565b90915550506001600160a01b038216600081815260208181526040808320805486019055518481527fddf252ad1be2c89b69c2b068fc378daa952ba7f163c4a11628f55a4df523b3ef910160405180910390a35050565b505050565b6000602082840312156200026c57600080fd5b81516001600160a01b03811681146200028457600080fd5b9392505050565b634e487b7160e01b600052604160045260246000fd5b600181811c90821680620002b657607f821691505b602082108103620002d757634e487b7160e01b600052602260045260246000fd5b50919050565b601f8211156200025457600081815260208120601f850160051c81016020861015620003065750805b601f850160051c820191505b81811015620003275782815560010162000312565b505050505050565b81516001600160401b038111156200034b576200034b6200028b565b62000363816200035c8454620002a1565b84620002dd565b602080601f8311600181146200039b5760008415620003825750858301515b600019600386901b1c1916600185901b17855562000327565b600085815260208120601f198616915b82811015620003cc57888601518255948401946001909101908401620003ab565b5085821015620003eb5787850151600019600388901b60f8161c191681555b5050505050600190811b01905550565b808201808211156200041d57634e487b7160e01b600052601160045260246000fd5b92915050565b610a2180620004336000396000f3fe608060405234801561001057600080fd5b50600436106100f55760003560e01c806370a0823111610097578063a457c2d711610066578063a457c2d7146101ea578063a9059cbb146101fd578063dd62ed3e14610210578063f2fde38b1461022357600080fd5b806370a0823114610194578063715018a6146101bd5780638da5cb5b146101c757806395d89b41146101e257600080fd5b806323b872dd116100d357806323b872dd1461014d5780632ff2e9dc14610160578063313ce56714610172578063395093511461018157600080fd5b806306fdde03146100fa578063095ea7b31461011857806318160ddd1461013b575b600080fd5b610102610236565b60405161010f919061086b565b60405180910390f35b61012b6101263660046108d5565b6102c8565b604051901515815260200161010f565b6002545b60405190815260200161010f565b61012b61015b3660046108ff565b6102e2565b61013f6a0c685fa11e01ec6f00000081565b6040516012815260200161010f565b61012b61018f3660046108d5565b610306565b61013f6101a236600461093b565b6001600160a01b031660009081526020819052604090205490565b6101c5610328565b005b6005546040516001600160a01b03909116815260200161010f565b61010261033c565b61012b6101f83660046108d5565b61034b565b61012b61020b3660046108d5565b6103cb565b61013f61021e36600461095d565b6103d9565b6101c561023136600461093b565b610404565b60606003805461024590610990565b80601f016020809104026020016040519081016040528092919081815260200182805461027190610990565b80156102be5780601f10610293576101008083540402835291602001916102be565b820191906000526020600020905b8154815290600101906020018083116102a157829003601f168201915b5050505050905090565b6000336102d681858561047d565b60019150505b92915050565b6000336102f08582856105a1565b6102fb85858561061b565b506001949350505050565b6000336102d681858561031983836103d9565b61032391906109ca565b61047d565b6103306107bf565b61033a6000610819565b565b60606004805461024590610990565b6000338161035982866103d9565b9050838110156103be5760405162461bcd60e51b815260206004820152602560248201527f45524332303a2064656372656173656420616c6c6f77616e63652062656c6f77604482015264207a65726f60d81b60648201526084015b60405180910390fd5b6102fb828686840361047d565b6000336102d681858561061b565b6001600160a01b03918216600090815260016020908152604080832093909416825291909152205490565b61040c6107bf565b6001600160a01b0381166104715760405162461bcd60e51b815260206004820152602660248201527f4f776e61626c653a206e6577206f776e657220697320746865207a65726f206160448201526564647265737360d01b60648201526084016103b5565b61047a81610819565b50565b6001600160a01b0383166104df5760405162461bcd60e51b8152602060048201526024808201527f45524332303a20617070726f76652066726f6d20746865207a65726f206164646044820152637265737360e01b60648201526084016103b5565b6001600160a01b0382166105405760405162461bcd60e51b815260206004820152602260248201527f45524332303a20617070726f766520746f20746865207a65726f206164647265604482015261737360f01b60648201526084016103b5565b6001600160a01b0383811660008181526001602090815260408083209487168084529482529182902085905590518481527f8c5be1e5ebec7d5bd14f71427d1e84f3dd0314c0f7b2291e5b200ac8c7c3b925910160405180910390a3505050565b60006105ad84846103d9565b9050600019811461061557818110156106085760405162461bcd60e51b815260206004820152601d60248201527f45524332303a20696e73756666696369656e7420616c6c6f77616e636500000060448201526064016103b5565b610615848484840361047d565b50505050565b6001600160a01b03831661067f5760405162461bcd60e51b815260206004820152602560248201527f45524332303a207472616e736665722066726f6d20746865207a65726f206164604482015264647265737360d81b60648201526084016103b5565b6001600160a01b0382166106e15760405162461bcd60e51b815260206004820152602360248201527f45524332303a207472616e7366657220746f20746865207a65726f206164647260448201526265737360e81b60648201526084016103b5565b6001600160a01b038316600090815260208190526040902054818110156107595760405162461bcd60e51b815260206004820152602660248201527f45524332303a207472616e7366657220616d6f756e7420657863656564732062604482015265616c616e636560d01b60648201526084016103b5565b6001600160a01b03848116600081815260208181526040808320878703905593871680835291849020805487019055925185815290927fddf252ad1be2c89b69c2b068fc378daa952ba7f163c4a11628f55a4df523b3ef910160405180910390a3610615565b6005546001600160a01b0316331461033a5760405162461bcd60e51b815260206004820181905260248201527f4f776e61626c653a2063616c6c6572206973206e6f7420746865206f776e657260448201526064016103b5565b600580546001600160a01b038381166001600160a01b0319831681179093556040519116919082907f8be0079c531659141344cd1fd0a4f28419497f9722a3daafe3b4186f6b6457e090600090a35050565b600060208083528351808285015260005b818110156108985785810183015185820160400152820161087c565b506000604082860101526040601f19601f8301168501019250505092915050565b80356001600160a01b03811681146108d057600080fd5b919050565b600080604083850312156108e857600080fd5b6108f1836108b9565b946020939093013593505050565b60008060006060848603121561091457600080fd5b61091d846108b9565b925061092b602085016108b9565b9150604084013590509250925092565b60006020828403121561094d57600080fd5b610956826108b9565b9392505050565b6000806040838503121561097057600080fd5b610979836108b9565b9150610987602084016108b9565b90509250929050565b600181811c908216806109a457607f821691505b6020821081036109c457634e487b7160e01b600052602260045260246000fd5b50919050565b808201808211156102dc57634e487b7160e01b600052601160045260246000fdfea26469706673582212201d64906b6dc7f046e29d69d1591a187ef17feff48982e3e18c29c6cb4ca5984264736f6c63430008140033",
  "linkReferences": {},
  "deployedLinkReferences": {}
}