{
  "_format": "hh-sol-artifact-1",
  "contractName": "TokenSale",
  "sourceName": "src/contracts/polygon/contracts/TokenSale.sol",
  "abi": [
    {
      "inputs": [
        {
          "internalType": "address",
          "name": "_token",
          "type": "address"
        },
        {
          "internalType": "uint256",
          "name": "_initialPrice",
          "type": "uint256"
        }
      ],
      "stateMutability": "nonpayable",
      "type": "constructor"
    },
    {
      "anonymous": false,
      "inputs": [
        {
          "indexed": true,
          "internalType": "address",
          "name": "previousOwner",
          "type": "address"
        },
        {
          "indexed": true,
          "internalType": "address",
          "name": "newOwner",
          "type": "address"
        }
      ],
      "name": "OwnershipTransferred",
      "type": "event"
    },
    {
      "anonymous": false,
      "inputs": [
        {
          "indexed": false,
          "internalType": "uint256",
          "name": "newPrice",
          "type": "uint256"
        }
      ],
      "name": "PriceChanged",
      "type": "event"
    },
    {
      "anonymous": false,
      "inputs": [
        {
          "indexed": false,
          "internalType": "bool",
          "name": "isActive",
          "type": "bool"
        }
      ],
      "name": "SaleStateChanged",
      "type": "event"
    },
    {
      "anonymous": false,
      "inputs": [
        {
          "indexed": true,
          "internalType": "address",
          "name": "buyer",
          "type": "address"
        },
        {
          "indexed": false,
          "internalType": "uint256",
          "name": "ethAmount",
          "type": "uint256"
        },
        {
          "indexed": false,
          "internalType": "uint256",
          "name": "tokenAmount",
          "type": "uint256"
        }
      ],
      "name": "TokensPurchased",
      "type": "event"
    },
    {
      "inputs": [],
      "name": "buyTokens",
      "outputs": [],
      "stateMutability": "payable",
      "type": "function"
    },
    {
      "inputs": [],
      "name": "getSaleInfo",
      "outputs": [
        {
          "internalType": "uint256",
          "name": "currentPrice",
          "type": "uint256"
        },
        {
          "internalType": "uint256",
          "name": "soldTokens",
          "type": "uint256"
        },
        {
          "internalType": "uint256",
          "name": "availableTokens",
          "type": "uint256"
        },
        {
          "internalType": "bool",
          "name": "isActive",
          "type": "bool"
        }
      ],
      "stateMutability": "view",
      "type": "function"
    },
    {
      "inputs": [],
      "name": "owner",
      "outputs": [
        {
          "internalType": "address",
          "name": "",
          "type": "address"
        }
      ],
      "stateMutability": "view",
      "type": "function"
    },
    {
      "inputs": [],
      "name": "price",
      "outputs": [
        {
          "internalType": "uint256",
          "name": "",
          "type": "uint256"
        }
      ],
      "stateMutability": "view",
      "type": "function"
    },
    {
      "inputs": [],
      "name": "renounceOwnership",
      "outputs": [],
      "stateMutability": "nonpayable",
      "type": "function"
    },
    {
      "inputs": [],
      "name": "saleActive",
      "outputs": [
        {
          "internalType": "bool",
          "name": "",
          "type": "bool"
        }
      ],
      "stateMutability": "view",
      "type": "function"
    },
    {
      "inputs": [
        {
          "internalType": "uint256",
          "name": "newPrice",
          "type": "uint256"
        }
      ],
      "name": "setPrice",
      "outputs": [],
      "stateMutability": "nonpayable",
      "type": "function"
    },
    {
      "inputs": [
        {
          "internalType": "bool",
          "name": "active",
          "type": "bool"
        }
      ],
      "name": "setSaleActive",
      "outputs": [],
      "stateMutability": "nonpayable",
      "type": "function"
    },
    {
      "inputs": [],
      "name": "token",
      "outputs": [
        {
          "internalType": "contract IERC20",
          "name": "",
          "type": "address"
        }
      ],
      "stateMutability": "view",
      "type": "function"
    },
    {
      "inputs": [],
      "name": "totalSold",
      "outputs": [
        {
          "internalType": "uint256",
          "name": "",
          "type": "uint256"
        }
      ],
      "stateMutability": "view",
      "type": "function"
    },
    {
      "inputs": [
        {
          "internalType": "address",
          "name": "newOwner",
          "type": "address"
        }
      ],
      "name": "transferOwnership",
      "outputs": [],
      "stateMutability": "nonpayable",
      "type": "function"
    },
    {
      "inputs": [],
      "name": "withdrawFunds",
      "outputs": [],
      "stateMutability": "nonpayable",
      "type": "function"
    },
    {
      "inputs": [],
      "name": "withdrawUnsoldTokens",
      "outputs": [],
      "stateMutability": "nonpayable",
      "type": "function"
    }
  ],
  "bytecode": "0x60806040526005805460ff1916600117905534801561001d57600080fd5b50604051610c73380380610c7383398101604081905261003c91610126565b600160005561004a336100d4565b6001600160a01b0382166100a45760405162461bcd60e51b815260206004820152601560248201527f496e76616c696420746f6b656e20616464726573730000000000000000000000604482015260640160405180910390fd5b600280546001600160a01b0319166001600160a01b03841617905560038190556100cd336100d4565b5050610160565b600180546001600160a01b038381166001600160a01b0319831681179093556040519116919082907f8be0079c531659141344cd1fd0a4f28419497f9722a3daafe3b4186f6b6457e090600090a35050565b6000806040838503121561013957600080fd5b82516001600160a01b038116811461015057600080fd5b6020939093015192949293505050565b610b048061016f6000396000f3fe6080604052600436106100c25760003560e01c806391b7f5ed1161007f578063d0febe4c11610059578063d0febe4c146101e3578063db83694c146101eb578063f2fde38b14610222578063fc0c546a1461024257600080fd5b806391b7f5ed14610198578063a035b1fe146101b8578063c8bdbfb6146101ce57600080fd5b806324600fc3146100c757806368428a1b146100de578063715018a61461010d578063841718a6146101225780638da5cb5b146101425780639106d7ba14610174575b600080fd5b3480156100d357600080fd5b506100dc610262565b005b3480156100ea57600080fd5b506005546100f89060ff1681565b60405190151581526020015b60405180910390f35b34801561011957600080fd5b506100dc6102a6565b34801561012e57600080fd5b506100dc61013d3660046109ca565b6102ba565b34801561014e57600080fd5b506001546001600160a01b03165b6040516001600160a01b039091168152602001610104565b34801561018057600080fd5b5061018a60045481565b604051908152602001610104565b3480156101a457600080fd5b506100dc6101b33660046109ee565b61030a565b3480156101c457600080fd5b5061018a60035481565b3480156101da57600080fd5b506100dc610390565b6100dc6104da565b3480156101f757600080fd5b506102006107ac565b6040805194855260208501939093529183015215156060820152608001610104565b34801561022e57600080fd5b506100dc61023d366004610a07565b610841565b34801561024e57600080fd5b5060025461015c906001600160a01b031681565b61026a6108b7565b6001546040516001600160a01b03909116904780156108fc02916000818181858888f193505050501580156102a3573d6000803e3d6000fd5b50565b6102ae6108b7565b6102b86000610911565b565b6102c26108b7565b6005805460ff19168215159081179091556040519081527fe333f8a36ee86e754548af2d6f50c73ff0d501e22e6c784662123dbbe493c602906020015b60405180910390a150565b6103126108b7565b6000811161035b5760405162461bcd60e51b815260206004820152601160248201527005072696365206d757374206265203e203607c1b60448201526064015b60405180910390fd5b60038190556040518181527fa6dc15bdb68da224c66db4b3838d9a2b205138e8cff6774e57d0af91e196d622906020016102ff565b6103986108b7565b6002546040516370a0823160e01b81523060048201526000916001600160a01b0316906370a0823190602401602060405180830381865afa1580156103e1573d6000803e3d6000fd5b505050506040513d601f19601f820116820180604052508101906104059190610a30565b6002549091506001600160a01b031663a9059cbb61042b6001546001600160a01b031690565b6040516001600160e01b031960e084901b1681526001600160a01b039091166004820152602481018490526044016020604051808303816000875af1158015610478573d6000803e3d6000fd5b505050506040513d601f19601f8201168201806040525081019061049c9190610a49565b6102a35760405162461bcd60e51b815260206004820152600f60248201526e151c985b9cd9995c8819985a5b1959608a1b6044820152606401610352565b6104e2610963565b60055460ff166105295760405162461bcd60e51b815260206004820152601260248201527153616c65206973206e6f742061637469766560701b6044820152606401610352565b600034116105725760405162461bcd60e51b8152602060048201526016602482015275045544820616d6f756e74206d757374206265203e20360541b6044820152606401610352565b60035460009061058a34670de0b6b3a7640000610a7c565b6105949190610a99565b9050600081116105e65760405162461bcd60e51b815260206004820152601860248201527f546f6b656e20616d6f756e74206d757374206265203e203000000000000000006044820152606401610352565b6002546040516370a0823160e01b81523060048201526000916001600160a01b0316906370a0823190602401602060405180830381865afa15801561062f573d6000803e3d6000fd5b505050506040513d601f19601f820116820180604052508101906106539190610a30565b90508181101561069b5760405162461bcd60e51b8152602060048201526013602482015272496e73756666696369656e7420746f6b656e7360681b6044820152606401610352565b81600460008282546106ad9190610abb565b909155505060025460405163a9059cbb60e01b8152336004820152602481018490526001600160a01b039091169063a9059cbb906044016020604051808303816000875af1158015610703573d6000803e3d6000fd5b505050506040513d601f19601f820116820180604052508101906107279190610a49565b6107655760405162461bcd60e51b815260206004820152600f60248201526e151c985b9cd9995c8819985a5b1959608a1b6044820152606401610352565b604080513481526020810184905233917f8fafebcaf9d154343dad25669bfa277f4fbacd7ac6b0c4fed522580e040a0f33910160405180910390a250506102b86001600055565b600354600480546002546040516370a0823160e01b8152309381019390935260009384938493849390916001600160a01b03909116906370a0823190602401602060405180830381865afa158015610808573d6000803e3d6000fd5b505050506040513d601f19601f8201168201806040525081019061082c9190610a30565b6005549297919650945060ff90911692509050565b6108496108b7565b6001600160a01b0381166108ae5760405162461bcd60e51b815260206004820152602660248201527f4f776e61626c653a206e6577206f776e657220697320746865207a65726f206160448201526564647265737360d01b6064820152608401610352565b6102a381610911565b6001546001600160a01b031633146102b85760405162461bcd60e51b815260206004820181905260248201527f4f776e61626c653a2063616c6c6572206973206e6f7420746865206f776e65726044820152606401610352565b600180546001600160a01b038381166001600160a01b0319831681179093556040519116919082907f8be0079c531659141344cd1fd0a4f28419497f9722a3daafe3b4186f6b6457e090600090a35050565b6002600054036109b55760405162461bcd60e51b815260206004820152601f60248201527f5265656e7472616e637947756172643a207265656e7472616e742063616c6c006044820152606401610352565b6002600055565b80151581146102a357600080fd5b6000602082840312156109dc57600080fd5b81356109e7816109bc565b9392505050565b600060208284031215610a0057600080fd5b5035919050565b600060208284031215610a1957600080fd5b81356001600160a01b03811681146109e757600080fd5b600060208284031215610a4257600080fd5b5051919050565b600060208284031215610a5b57600080fd5b81516109e7816109bc565b634e487b7160e01b600052601160045260246000fd5b8082028115828204841417610a9357610a93610a66565b92915050565b600082610ab657634e487b7160e01b600052601260045260246000fd5b500490565b80820180821115610a9357610a93610a6656fea26469706673582212201c790e6f50422f4a7c484a3ddb3d5c4fc8b3de59dba0a1a5a3af67434c0baa2f64736f6c63430008140033",
  "linkReferences": {},
  "deployedLinkReferences": {}
}